:020000040800F2
:1000000088060010011F0008511F0008F590000825
:10001000FB90000801910008079100080000000013
:10002000000000000000000000000000C9AD000852
:10003000511F00080000000063AE000873AE000806
:10004000511F0008511F0008511F0008511F0008D0
:10005000511F0008511F0008511F0008511F0008C0
:10006000511F0008511F0008511F00089D4700083C
:10007000A9470008B5470008C1470008CD47000858
:10008000D9470008E5470008511F00089D230008D4
:10009000A1220008511F0008A1230008511F0008D9
:1000A000511F0008511F0008511F0008511F000870
:1000B000511F0008511F0008511F0008511F000860
:1000C000511F0008511F0008511F0008753E00080D
:1000D000813E0008511F0008511F0008511F0008F1
:1000E000511F0008511F0008511F0008511F000830
:1000F000511F0008511F0008511F0008511F000820
:10010000511F0008511F0008511F00088D3E0008B4
:10011000511F0008511F0008511F0008511F0008FF
:10012000F1470008FD470008094800081548000885
:1001300021480008511F0008511F0008511F0008E6
:10014000511F0008511F0008511F0008511F0008CF
:100150002D48000839480008511F0008511F0008A9
:10016000511F0008511F0008511F0008511F0008AF
:10017000511F0008511F0008511F00080000000017
:10018000511F0008511F00080348044B834202D04E
:10019000034B03B118477047C00A0020C00A002073
:1001A000000000000548064B1B1AD90F01EBA30104
:1001B000491002D0034B03B118477047C00A002012
:1001C000C00A00200000000010B5064C237843B997
:1001D000FFF7DAFF044B13B10448AFF300800123AB
:1001E000237010BDC00A00200000000080E9010853
:1001F00008B5054B1BB105490548AFF30080BDE8C4
:100200000840FFF7CFBF00BF00000000C40A002075
:1002100080E90108A3F5803A704700BF174B002B17
:1002200008BF134B9D46FFF7F5FF00218B460F4695
:100230001348144A121A0EF0D9F90E4B002B00D0B5
:1002400098470D4B002B00D0984700200021040058
:100250000D000D48002802D00C480AF065FA0FF096
:10026000F1FD200029000CF04BFB0AF063FC00BFFD
:10027000000008000000000031C8000888060010D7
:10028000C00A0020383A002029A70008000000001A
:10029000D0B594B001F062FD00230393002600273F
:1002A00010230024194610AA0CA8CDE90444CDE976
:1002B0000644ADF80A40CDE9086701F043FC20464A
:1002C0000AF0B4FCCDE90A010AA80EF009FA836825
:1002D000083B092B044633D840F2112222FA03F3DB
:1002E000DA072DD54368002B2AD10368002B27D1CC
:1002F00004A801F095FC00287CD003AB4C4A009385
:1003000010A9049B0CA801F05FFC049B494810AAAB
:100310000CA909F03BFB07AA06A905A801F098FC67
:1003200000286DD003AB444A009310A9069B0CA88B
:1003300001F04AFC069B414810AA0CA909F026FBD3
:10034000A268172A1CD83E4BD340DB0718D5636838
:10035000B3B92368A3B907AA06A905A801F078FCD8
:10036000002853D003AB374A009310A9059B0CA873
:1003700001F02AFC059B344810AA0CA909F006FBE1
:10038000A368083B092B30D82368002B2DD107AA7E
:1003900006A905A801F05CFC00283DD003AB2B4A60
:1003A000009310A9079B0CA801F00EFC079B28489E
:1003B00010AA0CA909F0EAFA264801F013FB08A9D3
:1003C0000DF10A0001F062FC60B303AB224A009316
:1003D00010A9BDF80A300CA801F0F6FBBDF80A30F0
:1003E0001E4810AA0CA909F0D1FA4FF47A700AF04D
:1003F000DBFC55E71A491B483D2207F0FDFB8AE765
:1004000019491848412207F0F7FB99E717491548A1
:10041000412207F0F1FBB3E715491248412207F0EA
:10042000EBFBC9E713490F48402207F0E5FBDCE787
:10043000BC4C0108BF4C01080F4D0108114D0108CB
:1004400024FF9300664D0108684D01089D6701086F
:10045000C14D010828100020194E01081D4E010849
:10046000CD4C0108DC0A00201E4D0108754D010825
:10047000D04D01082B4E01080AF0E8BBF0B502F19F
:10048000080483B024F0070402AFADEB040D1D4651
:100490008DF808000DF10900561C0FF041FF0023F4
:1004A000009302AA3346EE21284607F04AFC0028B2
:1004B00014BF6FF0010000200437BD46F0BD7FB5CA
:1004C0001C4601230D4616468DF80F0000930DF1D2
:1004D0000F02EE21204607F034FC18B16FF0010046
:1004E00004B070BD009033462A46EE21204607F046
:1004F00049FC0028F4D0F1E710B5044607F0E2FC0F
:10050000012384F80831084BC4F83C31074BC4F888
:100510004031074BC4F84431192384F80A31C4F838
:100520000041204610BD00BFBF0400087D04000844
:100530007904000870B50446FC3000F0F5FB014674
:1005400020B1164809F022FA002070BD40F20233B3
:10055000C4F84C31082304F1FC0184F8503104F54F
:10056000A67000F0C9FC014608B10D48EAE74FF457
:10057000A0730125A4F85631962304F5AA7184F8D6
:100580005451A4F8583104F1FC02284600F07CFFD5
:10059000014608B10348D5E72846D6E7714E010861
:1005A000B24E0108F34E01082DE9F043044689B02C
:1005B000884600F1FC01012017461E4600F04BFC66
:1005C000014630B11E4809F0E1F9002009B0BDE84C
:1005D000F08304F1FC0204F5A6710120D4F84491E3
:1005E00000F012FDB4F85831D4F800111844C8478F
:1005F00002A904F1FC030DF10702012000F046FD01
:10060000014608B10F48DEE79FED0F7ADDED047A71
:1006100067EE877A9FED0D7AFDEEE77A0120C8ED4F
:10062000007ADDED067A67EE877AFDEEE77AC7EDB0
:10063000007ADDED077AFCEEE77AC6ED007AC5E7D1
:10064000414F01087D4F01080000C84200007A4474
:10065000CB8BDFED1B6A9FED1B7A06EE103A07EE9F
:10066000900AB8EE466AF8EEE77A66EEC66AB1F925
:100670002030E7EE876A9FED147A05EE903A27EE78
:10068000467A91F922309FED116AA7EE867A07EE3D
:10069000903AF8EEE77AB3EE006A67EE867A27EED4
:1006A000077AF8EEE55A67EE877A9FED097AE6EE6B
:1006B000A57AC1ED0E7AC7EE877A17EE900A7047D9
:1006C0000000803A00008038000000390000003748
:1006D0000000A045D1ED0E6A91F928309FED537AC4
:1006E0009FED536ADFED535AF6EE007AA6EEA77A35
:1006F00006EE903AB1F92630F8EEE66A07EE903A47
:1007000066EE876AF8EEE77A66EE876A67EE877AC2
:100710008B8CE6EE867ADFED486A67EEA67AB7EE56
:10072000006AA7EEA56A06EE903AF8EE666A05EE54
:10073000100A66EE866AFDEEE67A17EE903A002B16
:1007400070D091F92E309FED3D4A06EE103AB1F986
:100750002C3007EE903AF8EEE77AB1F92A3067EEDE
:10076000877AB8EEC66A67EE074A26EE046A07EE95
:10077000103A77EEA77AB8EEC77AE4EE867A91F867
:1007800034309FED2F6A27EE067AB5EE006AA7EEA9
:10079000867AB8EEC56ADFED2B7A77EEC67A9FEDE2
:1007A0002A6AE7EE467A9FED297A67EE877A06EEA7
:1007B000103A87EEA67A91F92F30DFED257A05EE13
:1007C000103A67EE277AB1F9323067EEA74A06EEA3
:1007D000903AB1F9303064EEA74A07EE903AF8EE5D
:1007E000E66AF8EEE77A66EE876A67EEA57A66EE65
:1007F000876A67EE877ADFED175AB8EEC66AE6EECB
:10080000A57A26EE046ADFED146AE4EE867AB8EE85
:10081000C55AE5EE267ADFED116AA7EEA67A17EE45
:10082000100A70479FED0E7AF9E700BF00007AC703
:10083000000080380000003800000036000000375B
:100840000000804700008049000080390050C34507
:100850000000803B00000030000000430000803DAD
:100860000000000091ED0E6ADFED327A0B8ADFEDB9
:10087000324AC6EE276A06EE103A91F9143007EEB6
:10088000903A4B8AFAEEEF7AB8EE466A05EE103AE5
:1008900067EEA67A91F91630F3EE005AE6EE257A65
:1008A00006EE103A91F9153005EE903A07EE100A6F
:1008B000F8EEE55AB8EE477A65EEA45A37EE677A55
:1008C000F7EE007AE5EEA67ACB7DBAEEC66ABBEE0D
:1008D000C75A26EE266AE6EE267A06EE103A67EE4C
:1008E000857A91F9183067EE877A07EE103ABAEEFA
:1008F000E57AB8EE466A27EE267AA6EE247A27EE47
:10090000277AE7EE277A9FED0D7AF4EEC77AF1EEBB
:1009100010FA0BDC9FED0A7AB4EEE77AF1EE10FAEA
:10092000D4BF17EE900A17EE100A704717EE100AA0
:10093000704700BF0000A045000080380000C8429A
:100940000000000091F91C30DFED305A9FED307A45
:100950009FED305A06EE103AB1F91A3006EE903A91
:10096000B0F5C87FFAEEE86A28BF4FF4C870A6EE6B
:10097000A57A91F9193007EE900AF7EE006AF8EEC1
:10098000677AF0EE665AE7EE875A82B007EE903A41
:100990009FED217A91F90E30F8EEE77ABAEECB6A44
:1009A000A7EE857A07EE903AF8EEE77A91F83C30B8
:1009B00067EE867AB1EE006AE5EE877A07EE103AC6
:1009C000B8EE477A91F93D3037EE067AC6EE075A0F
:1009D00007EE103A9FED116AB8EEC77A67EEA57A76
:1009E000F0EE665AE7EE065ABBEE097A86EEA56A85
:1009F000A7EE867ADFED0A7A67EE277AFCEEE77AD1
:100A0000CDED017A9DF8040002B070476F12033AF1
:100A100075021A3B0000803D000044426F12033B08
:100A20009A99594048B1036C3BB1436C2BB1806C2F
:100A3000B0FA80F04009404270474FF0FF307047F5
:100A400073B502460846FFF7EDFF0C46054670BB3E
:100A500082F0FF004A7BC009B2EB001F4FEA00138F
:100A60000CD04B730E6C4B6801220DF10701F32083
:100A7000B04784F84C0020B16FF00105284602B061
:100A800070BD9DF80730627B666C02F0100223F0A7
:100A9000100313438DF80730012263680DF107013D
:100AA0007320B04784F84C000028E7D0E4E74FF00B
:100AB000FF35E3E737B50446FFF7B4FF80B9256C8F
:100AC000636801220DF10701F320A84784F84C0068
:100AD00048B99DF8073003F01003637303B030BDCD
:100AE0004FF0FF30FAE76FF00100F7E710B504466A
:100AF0001046FFF797FF50B923788B4206D9217033
:100B000092F84D3043F0010382F84D3010BD4FF0A4
:100B1000FF30FBE7F0B501232B4E2C4CDFED2C4AC8
:100B20008B4007EE903A06EE100A05EE102A0F46AB
:100B30000FCEA1B06D460FC50FCE0FC50FCE0FC59E
:100B400096E80F0085E80F000FCC10AD0FC50FCC55
:100B50000FC50FCC0FC594E80F00F8EEE76A85E8E3
:100B60000F00DFED1C7A20ABB8EE466A03EB870777
:100B700036EE676A57ED207A87EEA47AB8EEC55A4A
:100B8000DFED157AB1EE044AE5EE047AF7EE005A8D
:100B900037EE257A27EE277AC6EE077A17ED106A28
:100BA00037EEA57AC6EE247A9FED0C6A77EEA57A29
:100BB00067EE867A67EEA67A67EE277AC5EEA77AA1
:100BC00017EE900A21B0F0BD5C7001089C7001081E
:100BD0000000C842000000440080A744BD3706342E
:100BE0002DE9F04387B01E4604468846174600218B
:100BF000142201A80DF0FAFC3046FFF713FF90BB5A
:100C00008CB3B8F1000F2ED07B1E092B2ED801AD6E
:100C100008F1FF3804EB0709327B14F8013B3AB9BD
:100C200018463146FFF70CFF14F8013C03F07F0330
:100C30002B704C4518F8013F6B7005F10205EBD1A4
:100C400070B97A00746C73689DF80400013A0DF174
:100C50000501A047002886F84C0018BF6FF001007E
:100C600007B0BDE8F0834FF0FF30F9E76FF0030005
:100C7000F6E72DE9F042054618461E46FFF7D2FE7C
:100C80000F4691460446D0B9C9B1337B43B92846D3
:100C90003146FFF7D5FE45F08003041E08BF1D4610
:100CA00028467368356C4A463946A847002886F8B6
:100CB0004C0018BF6FF001042046BDE8F0824FF0F1
:100CC000FF34F9E737B5E0238DF80630B623054643
:100CD0008DF80730FFF7A6FE18BB2B7B63B12B46C0
:100CE00001220DF107010DF10600FFF779FF04461F
:100CF00048B1204603B030BD2846FFF7DBFE04466E
:100D00000028F6D1EBE7AB6C696842F210709847A7
:100D10002B7B002BEDD1284603B0BDE83040FFF718
:100D2000C9BE4FF0FF34E4E710B504468CB0FFF7BE
:100D3000C9FF234601222146D020FFF79AFF034630
:100D4000002840F082802278612A40F081808DF86E
:100D500004002346012201A9F020FFF78AFF034681
:100D6000002872D19DF80430A3601722234601A900
:100D70008A20FFF77EFF0346002866D123460E2215
:100D80000DF11B01E120FFF774FF034600285CD141
:100D9000234605220DF12901FFF76BFF03460028CA
:100DA00053D1BDF82320E283BDF8042022849DF8AE
:100DB000062084F82220029A62629DF80C2084F8B2
:100DC0002820BDF80E206285BDF81020A285BDF850
:100DD00012209DF81D0052BAE285BDF81620228629
:100DE000BDF8182062869DF81A2084F834209DF8FA
:100DF0001C2002F00F0141EA001121829DF81B1016
:100E0000120942EA01126282BDF81E20A282BDF8D8
:100E10002020E2829DF8222022769DF8272062760B
:100E2000BDF8252062839DF8282022779DF82B208D
:100E3000C2F3011284F83C209DF8292084F83D205B
:100E40009DF92D20121184F83E2018460CB010BDDB
:100E50006FF00203F9E773B5742306460D468DF86B
:100E600007302B4601220DF106017420FFF701FF28
:100E70000446B8B99DF80620930716D022F0030265
:100E80008DF806202B460DF1060101220DF1070019
:100E9000FFF7A6FEAB6C6968044642F210709847F3
:100EA000002CDED0204602B070BD002EFAD022F019
:100EB000030206F0030632438DF806202B4601227A
:100EC0000DF106010DF10700FFF78AFE0446E9E780
:100ED00013B50B46044660B101220DF107017420E1
:100EE000FFF7C7FE9DF8073003F00303237002B03D
:100EF00010BD4FF0FF30FAE770B5424B86B00546A3
:100F000018681B7902908DF80C300DF10700002352
:100F10000E4604938DF81430FFF7DAFF044618B933
:100F20003146FFF798FF044665B94FF0FF349DF84E
:100F3000070020B11CB93146FFF78DFF044620465B
:100F400006B070BD002CF2D13346052204A97120F1
:100F5000FFF78FFE86F84D4004460028E7D1324661
:100F60000721E81CFFF7C2FD0028DED10521681C1F
:100F7000FFF7BCFD0028D8D1A81CFFF7B7FD00285B
:100F8000D3D12846FFF7B2FD0028CED10821281D75
:100F9000FFF7ACFD0028C8D1E9789DF814209DF832
:100FA000133061F38402697803F01F0343EA4113AD
:100FB000A97861F384038DF8133029789DF81130F6
:100FC00061F3020329798DF81130082908BF214601
:100FD00002F01F0343EA41138DF814309DF81030DE
:100FE00014BF2046012003F07F0343EAC0138DF8AD
:100FF00010300522334604A902A8FFF7F1FD04468C
:1010000095E700BFBE4F010837B51F4B0546D3F823
:101010008000B3F8843000900C46ADF8043011B96C
:10102000002003B030BD0521601CFFF75FFD0028E4
:10103000F6D1A01CFFF75AFD0028F1D12046FFF79A
:1010400055FD0028ECD1637808336B44022D13F86A
:10105000082CA37803F108036B4413F8083C1344ED
:10106000227802F108026A4412F8080C184440F28F
:10107000AB7303FB00F00BBF00F5865000F5A550E5
:1010800040180D30CDE700BF5C7001082DE9F04F2E
:10109000B5B0044600920D464822002122A81E4603
:1010A0000DF0A4FA28AB0A900B9330462EAB0C93AC
:1010B000FFF7B8FC074628B14FF0FF37384635B088
:1010C000BDE8F08F002DF7D0012C40F0D68001460E
:1010D000112215A80DF08AFA4FF0050933461122A6
:1010E00015A91D20FFF7C5FD9DF85510A9709DF8A5
:1010F000561001919DF8571002919DF858100391D8
:101100009DF8591004919DF85A10059103469DF8D9
:101110005B109DF8540006919DF85C10079100F05B
:1011200080029DF85D10089100F00F009DF861109D
:1011300068700991B1689DF862A09DF864809DF87F
:1011400063B001290CBF08F030010AF030010A43F6
:101150002A70120676D5002B7CD133460122E91C79
:101160005A30FFF786FD0346002873D16878503067
:1011700033460122291DC0B2FFF77BFD034600283C
:1011800068D16878643033460122691DC0B2FFF728
:1011900070FD034600285DD1029B1A01019B42EAC3
:1011A0000332039B42EA1312DDE9071343EA0129E4
:1011B000059B1801049B40EA0330069B314640EA38
:1011C0001310FFF745FAA8601046FFF783FAE860AE
:1011D0004846FFF747FBB3682861012B25D108F08B
:1011E0000F024FF48023D34007EE103A4FEA9818CD
:1011F000DFEDA47AB8EEC77A48EA8B084FF0030215
:101200004FF4206318FB023827EE277A07EE908A06
:10121000F8EEE77AC7EE276AC5ED056A95F9003062
:10122000002B21DB002402271EE0099B96F93E20BB
:101230004FEA9A100AF00F0140EA8300FFF76AFCB8
:101240006861EBE733B9B26C7168019342F21070D8
:101250009047019B09F1FF3919F0FF090AD0002BD3
:101260003FF43CAF1F460024009B002B3FF424AF0B
:101270001C7023E7002BD1D0F4E7023CE4B2012C30
:1012800000F2FD800146332215A80DF0AFF91E22B1
:1012900039460DA80DF0AAF93346332215A91D20B1
:1012A000FFF7E7FC0028BDD133461E220DA95020D0
:1012B000FFF7DFFC0028B5D10DF12809DFED713A09
:1012C00015ACCA4680465AF8047B6378BB70E37855
:1012D000A278A079217894F80EB01B0143EA02337A
:1012E000227943EA121301936379227A000140EADA
:1012F0000330E37940EA1310637A43EA022302934E
:10130000637B0393E37B0493B368227C059301F032
:10131000800C01F00F01012B01F1D0030CBF02F092
:10132000300E0BF0300E79700DEB03014CEA0E0C11
:1013300087F800C011F89CCC87F804C011F892CC53
:1013400011F8881C87F803C079713146FFF780F9DE
:10135000B8600198FFF7BEF9F8600298FFF782FACB
:10136000059B3861012B55D102F00F034FF480210A
:1013700021FA03F307EE103A049B920942EA830232
:1013800003214FF4206312FB0132B8EEC77A07EE57
:10139000902A27EE237AF8EEE77AC7EE276A08F15B
:1013A0000108B8F1030F04F11104C7ED056A8AD1F1
:1013B00000244946234651F8042B013392F90000DA
:1013C000621CD2B2DBB234EA200428BF1446032BDD
:1013D000F1D14A4600235F1C1146BC46106851F803
:1013E000046F90F900E096F90030BEF1000F1FDAAB
:1013F000002B1FDA90F802E0B378A3EB0E039BB248
:101400004FF6FD7E734502D81BB2022B12DD16602B
:1014100008600FE0039B96F93E204FEA9B100BF00B
:101420000F0140EA8300FFF775FB06EE900AB6E76E
:10143000002BECDB0CF10103DBB2032B4FF0020CB1
:10144000CCD1674502F104024FF00103C3D14FF044
:10145000000C4FF0180E59F8047B0FCF0EFB0C5602
:101460000FC697E803000CF1010CBCF1030F86E8EE
:101470000300F0D1B4FA84F77F097F00F4E6044654
:101480000127F1E6002474492DE9F04F93B047F2AB
:10149000701305460E461746ADF8143029B94FF0C3
:1014A000FF34204613B0BDE8F08F11460020FFF74F
:1014B000D2FC04460028F4D16E23022D0DF1180948
:1014C0000DF1240A0DF13008CDE90F008DF813302D
:1014D000069009900C90ADF84400C9F80400A9F8F2
:1014E0000800CAF80400AAF80800C8F80400A8F820
:1014F000080000F09580032D5FD0012D01D001245C
:10150000CFE75A2370888DF818303946FFF71AFA5A
:1015100064238DF83030B3888DF82400B3F57C6FE8
:1015200049D23F2B44D803EB84138DF83C304FF065
:10153000000B3B462A4651464846FFF751FB0446FE
:101540000028AED13B462A460FA94046FFF748FB8C
:1015500004460028A5D13B4602220FA97020FFF7C0
:1015600088FB044600289CD13278012A40F0AE80E6
:10157000BB68012B00D102229DF83C3023F0080308
:1015800043EAC4049DF83D308DF83C4023F00F033E
:101590004BEA030B2BF0300B4BEA021B3B460222BB
:1015A0000FA905A88DF83DB0FFF71AFB044678E7B0
:1015B00001349B08B5E7FF23B7E7D6F80CB0BBF1C1
:1015C000000F3FF46CAFB368002B3FF468AF357C7D
:1015D000E2B2954201D8AB46ABE702F15A0109F8F5
:1015E000041033F81400019364323946FFF7AAF966
:1015F00008F804203BF814200AF80400B2F57C6FC8
:10160000019B0BD200213F2A05D802EB81120FA9C2
:101610000A550134DCE701319208F4E7FF22F6E7CE
:10162000F3680193002B3FF43AAFB3680293002BA9
:101630003FF435AFB6F812B0357CBBF1000F08BFF0
:1016400003240246D3B2AB4216D340F282739B45C9
:101650002DD84FF47A7340F2DD1203FB0BF3B3FB8A
:10166000F2F300229BB23F2B1ED803EB82138DF8BE
:101670001230F4B1032414E703F15A010393029BDF
:1016800009F8021033F812003946FFF75BF9039BA3
:101690000AF80200643308F80230019B0FA933F8FE
:1016A00012308B540132CDE701329B08DBE7FF2378
:1016B000DDE73B4601220DF112010DF11300FFF7AA
:1016C0008FFA044600287FF4ECAE84E7024601243A
:1016D00052E710B5044606F0F5FB3823C4F8FC3099
:1016E000204610BD7FB51546122300228DF80C3020
:1016F00005F00703009243EAC1030C468DF80E2063
:101700008DF80D3003AA0323D0F8FC1006F019FB66
:101710002A4606462146044808F038F9301E18BF0C
:10172000012004B070BD00BFC44F010830B585B0C2
:1017300000230B2200938DF80C2001F007020C46C9
:101740008DF80E308DF80D20032303AAD0F8FC107D
:1017500006F0F7FA21460546034808F017F9281E57
:1017600018BF012005B030BD0750010830B585B065
:101770000023009313220C468DF80E308DF80C20B8
:101780008DF80D10032303AAD0F8FC1006F0D9FA47
:1017900021460546034808F0F9F8281E18BF012025
:1017A00005B030BD2D500108F0B585B00023009381
:1017B0001746092203938DF808200E460123D0F81E
:1017C000FC1002AA044606F0BCFA054680B90A20BD
:1017D00009F0EAFA0095D4F8FC10042303AA204685
:1017E00006F0D0FA30B9039B3B60336005B0F0BD22
:1017F0000120FBE70220F9E71FB506238DF808302A
:1018000000230093D0F8FC10012302AA044606F03E
:1018100098FAE8B90090D4F8FC102046012303AAF6
:1018200006F0B0FA0446A8B99DF80C100A4808F072
:10183000ADF89DF80C30B22B05D108480CF09EFC99
:10184000204604B010BD06480CF098FC0324F7E7CE
:101850000124F5E70224F3E753500108775001080B
:10186000A850010837B54FF0FF350446009506F043
:1018700089FD1C22002104F18C000CF0B7FEBDF99B
:10188000181007F042F900222046082106F07AFCE1
:101890002046054906F094FCD4F89430D4F88C2006
:1018A0001A60204603B030BD40420F0010B5D0F89A
:1018B0009830D0F88C201A60044606F0CFFCD4F89B
:1018C0009430D4F88C201A6010BDD0F89830D0F83D
:1018D0008C2010B5052104461A6006F0BFFC0021DB
:1018E000204606F0BBFCD4F89430D4F88C201A6063
:1018F000C0B210BD10B504462046FFF7E6FFC3078F
:1019000000D410BD012009F04FFAF5E738B50446C0
:101910000D460621FFF7CAFFD4F89830D4F88C2082
:101920001A602021204606F099FCC5F307412046A5
:1019300006F094FCC5F30721204606F08FFCE9B2BF
:10194000204606F08BFCD4F89430D4F88C201A6032
:101950002046BDE83840FFF7CDBFF8B504460F4636
:1019600006219E181546FFF7A1FFD4F89830D4F849
:101970008C201A600221204606F070FCC7F3074154
:10198000204606F06BFCC7F30721204606F066FCF4
:10199000F9B2204606F062FCAE4209D1D4F8943088
:1019A000D4F88C201A602046BDE8F840FFF7A2BFAB
:1019B00015F8011BEDE710B5044606F083FA04F5AF
:1019C000807007F00AF8204610BD1FB549BA002301
:1019D000ADF80C10009303AA0223C42106F0B1F95C
:1019E00005B000BD10B5044600F5807006F085FF17
:1019F00042F2B1112046FFF7E8FF1E2009F0D4F9AA
:101A0000012010BD30B585B000244BF6E403054637
:101A1000ADF8083002AA00940223C42106F091F91F
:101A20000094032303AAC421284606F0ABF99DF8CD
:101A30000C00001B18BF012005B030BD10B5054CCF
:101A40000A44FF208A4200D110BD11F8013B4340F7
:101A5000E05CF7E7E27001082DE9F04188B0054647
:101A600088461746FFF7CEFF044620B900242046DB
:101A700008B0BDE8F08140F2EC53ADF8103000231F
:101A8000009304AA0223C421284606F05AF9064608
:101A90000028EBD14FF4FA7009F086F9009609237B
:101AA00005AAC421284606F06DF90028DED10222DD
:101AB00005A92846FFF7C2FF9DF816308342D5D10D
:101AC000BDF814305BBAA8F8003005F5807102A8A3
:101AD00006F046FFDDE902014FF47A72002312F0AE
:101AE000B1FEC7E90001C2E7044B10B5044603602C
:101AF000806A08B107F082FF204610BD8C7601088D
:101B000010B50446FFF7F0FF204610BD10B504469F
:101B1000FFF7EAFF204610BD10B5044600F58070BF
:101B200006F0E1FE2046FFF7DFFF204610BD10B5AE
:101B30000446FFF7D9FF2046FC2109F01EF8204695
:101B400010BD0000F7B50646002014461D460F469E
:101B500009F06CF8CDE9000168460CF0C1FD39468A
:101B60000346074A30460DF0C5FD68460CF0B8FD47
:101B7000044A0346294620460DF0BCFD03B0F0BDE3
:101B8000DD500108E650010800B50DA1D1E90001C2
:101B900089B009F013F808480CF0F0FA10230DEBA7
:101BA000030219466846FFF7CDFF04AA69460348B9
:101BB00007F0ECFE09B000BDEF5001080E5101081E
:101BC000996672690000000030B595B0CDE9012337
:101BD000189C0091034640210E4A04A807F0ECFE31
:101BE00021680B18B3F5801F054608D90A480CF088
:101BF000C5FA00210948FFF789FE0021216004AAE7
:101C000006482B46FFF7A9FE22682A44226015B039
:101C100030BD00BF2F5101083D510108180E0020B2
:101C200037B505460324094801AA2946FFF7BCFD3C
:101C300048B14FF4FA7009F0B7F8013CF3D12C60C9
:101C4000204603B030BD0120FBE700BF401100205B
:101C50002DE9F04180460F46164603250A483346D3
:101C60003A464146FEF7A0FC044648B94FF4FA70E4
:101C700009F09AF8013DF1D1C8F800403C603460A9
:101C80002046BDE8F08100BFC00E0020F8B5064632
:101C90000F46032507483A463146FFF7DDFE044666
:101CA00030B941F2883009F07FF8013DF2D134803B
:101CB0002046F8BD2810002007B5182219211C481D
:101CC000FFF707FD1B4A1C49194808F02BFD182295
:101CD00019211A48FFF76FFE164A1949174808F0EC
:101CE00021FD182219211748FEF706FC114A164952
:101CF000144808F017FD1623009306220523072138
:101D00001248FFF7AFFD0B4A1149104808F00AFDD1
:101D10004FF4E133032202210E4805F055FE054A37
:101D20000D490C4803B05DF804EB08F0FBBC00BFA4
:101D300040110020000000200D1B0008281000208A
:101D4000191B0008C00E0020011B0008180E0020FF
:101D5000611E0008DC0A00205D76000810B5012332
:101D600030480022082105F0B9FC2F492D482D22CA
:101D700005F042FFFFF708FF2C492A481B2205F017
:101D80003BFF2B48FFF738FD20B12A492548382270
:101D900005F032FF2848FEF7CDFB20B9274921483E
:101DA000382205F029FF2648FFF71CFE20B92549F7
:101DB0001C48382205F020FF1D4806220321FFF7AA
:101DC00091FC20B120491748442205F015FF18481E
:101DD0000F21FFF7ABFC20B11C491248292205F066
:101DE0000BFF13480A21FFF7C1FC20B118490D4829
:101DF0002D2205F001FF17490A481F2205F0FCFEBD
:101E000000242146144804F58054FFF77FFDB4F503
:101E1000801FF6D1BDE8104010490248122205F09B
:101E2000EBBE00BFDC0A00207D510108AF51010864
:101E300040110020CA510108C00E002006520108BE
:101E400028100020425201087D520108C7520108A3
:101E5000F252010820530108180E002042530108D5
:101E600010B5044606F030F9204610BD30B597B0E5
:101E70001422002168460CF0B9FB4022002106A87C
:101E80000CF0B4FB0424012505A80594079503F084
:101E90004DFE10B1002017B030BD10230593B023C4
:101EA0000D930223CDE90B50CDE90F3506202823F1
:101EB000CDE91103072305A8CDE91334159403F0E8
:101EC00035FE05460028E5D104F0E6FC0F22032389
:101ED00021466846CDE90023CDE90255049504F07A
:101EE000ABF8B0FA80F04009D5E7000008B5FFF77D
:101EF000BDFF10B9014808F087F908BD5653010825
:101F0000DFF834D005F0F4FA002103E00B4B5B5806
:101F1000435004310A480B4B42189A42F6D30A4AFE
:101F200002E0002342F8043B084B9A42F9D3FEF743
:101F300075F97047FEE70000880600108CE901087B
:101F400000000020C00A0020C00A0020383A00200B
:101F5000FEE7000008B51C4B984203F5DE3314D1B0
:101F6000D3F8883003F44053B3F5805F09D0B3F55C
:101F7000005F27D00BB1002008BDBDE8084004F089
:101F8000EFB8BDE8084003F087BD104A904209D180
:101F9000D3F8883003F44043B3F5804FF1D0B3F564
:101FA000004FE6E70A4A904209D1D3F8883003F49B
:101FB0004033B3F5803FE4D0B3F5003FD9E705489F
:101FC00008F022F90448D7E70054004000580040C8
:101FD000005C00406A5301080024F40073B501F06E
:101FE00001FD041E33DB1B4E56F8240000282ED0C2
:101FF0008423194D6343EB58DA69110609D5DA6970
:10200000120606D51B681B0603D5144B01211B685D
:10201000984784236343EB58DA6991060BD5DA6954
:10202000920608D51B68980605D50C4B56F8240077
:102030001B680021984784235C432B59DA691107F8
:1020400005D5DA69120742BF9B8C9BB2019302B09F
:1020500070BD00BF5C15002044120020401200201B
:102060000148FFF7BBBF00BF008000400148FFF7F9
:10207000B5BF00BF005000400148FFF7AFBF00BF31
:10208000004C00400148FFF7A9BF00BF00480040D6
:102090000148FFF7A3BF00BF004400400148FFF71D
:1020A0009DBF00BF00380140044A4109012300F0F0
:1020B0001F00834042F82130704700BF00E100E07C
:1020C0004309064900F01F0020330122824041F8F5
:1020D0002320BFF34F8FBFF36F8F704700E100E005
:1020E000034B19604168034B43F82120704700BF40
:1020F000401200205C15002030B4D0E900352B4898
:10210000834234D00ED8A0F50060834229D000F578
:102110008060834228D0A0F5006083421ED0002456
:10212000204608E02248834224D000F5384083420C
:10213000F5D1204C252084235D431F4B5B59FAB118
:102140001A68D1B942F020021A601C4B00F110024B
:102150009B6843F8224030BCFFF7A6BF184C2620EE
:10216000E9E7184C2720E6E7174C3420E3E7174C43
:102170003520E0E7164C4620DDE742F08002E3E739
:102180001A6849B922F020021A601B6813F0800F08
:1021900009D130BCFFF794BF22F080021A601B689F
:1021A00013F0200FF4E730BC704700BF0050004030
:1021B000008000409D2000084412002000ED00E057
:1021C0009120000885200008792000086D20000873
:1021D00061200008F8B54568184E842303FB0563A9
:1021E00007469A68B2F5805F15D11B69002B40F253
:1021F000FF1418BFFF24842303FB0563A3F85C408E
:10220000384601F0F7FA0028FAD084235D43735969
:10221000988C2040F8BD2AB91B6993420CBFFF245B
:102220007F24E8E7B2F1805F05D11B69002B0CBF6A
:102230007F243F24DFE70024DDE700BF44120020B5
:1022400070B5456806460C46304601F0E3FA0028B2
:10225000FAD084235D43034B5B59C4F308041C8507
:1022600070BD00BF4412002008B50B4A836E934234
:102270000ED002F57442934206D0A2F57842934202
:1022800006D0064807F0C0FFBDE8084003F07ABF5B
:10229000BDE8084003F064BF003C004080530108E3
:1022A000384B5A69D0072DE9F0412BD59E68364846
:1022B0009968364D9A68364C06EA0007B04308BF65
:1022C000012001EA050108BF98602E4BA94208BF12
:1022D0004FF4807002EA040208BF9860A24204BF73
:1022E0004FF480309860284B9F4205D0274B99428D
:1022F00002D0274B9A4205D1264B274A1B6810680B
:10230000012198471F4BD9685A6989070BD0970755
:1023100009D55A6922F002025A611E4B1E4A1B68F7
:10232000106800219847174B99695A695B698E07B5
:1023300009D5950507D51C0405D5164B164A1B680B
:102340001068052198470F4CA169626963694807C5
:1023500002D46369BDE8F0815105FAD51A040AD4A4
:1023600063691B04F6D50B4B0B4A1B681068BDE86C
:10237000F04102211847084A064B10681B680721E4
:102380009847EDE7006400400300000400030008E4
:10239000000003107415002078150020FFF780BF9F
:1023A000FFF77EBF30B591FAA1F391FAA1F1B3FA2C
:1023B00083F304685B000325B1FA81F105FA03F3A6
:1023C000490024EA03038A401A43026030BD00003A
:1023D00010B5394C8AB007286AD8DFE800F004113C
:1023E0001C27323D485EE36C43F00103E364E36C79
:1023F00003F001030193019B4FF090400AB010BD20
:10240000E36C2E4843F00203E364E36C03F0020341
:102410000293029BF2E7E36C294843F00403E36470
:10242000E36C03F004030393039BE7E7E36C2548A5
:1024300043F00803E364E36C03F008030493049B94
:10244000DCE7E36C204843F01003E364E36C03F043
:1024500010030593059BD1E7E36C1C4843F0200370
:10246000E364E36C03F020030693069BC6E7A36DC9
:1024700043F08053A365A36D03F080530793079B3C
:1024800003F07CFAE36C124843F04003E364E36C2E
:1024900003F040030893089BB0E7E36C0D4843F05A
:1024A0008003E364E36C03F080030993099BA5E7D1
:1024B000094807F0A9FE00BF0010024000040048D0
:1024C00000080048000C00480010004800140048B4
:1024D00000180048001C00489A530108431C10B51E
:1024E00004D107490748772207F052FC4FF4707176
:1024F00000F00F0400F0E4FE0120A04010BD00BF7A
:10250000605401086B5401084B1C70B504460E461C
:10251000018218D0C1F30310FFF75AFF0546304679
:10252000FFF7DCFF238A084A656103F00F03206090
:1025300052F82330A36105F11003636005F118031D
:102540002835A360E56070BDEC740108B0F9100097
:1025500000F04EBF0A46D0E905010AB9FFF722BFD5
:102560000122FBE708B502F02BF8002008BD0000AF
:1025700038B507F0DDFC124B124913485C6A02685B
:102580000B889B1A2344B3F5803F16D34FF47A751A
:10259000B3FBF5F205FB123305E00132A3F57A73C4
:1025A000B3F57A7FF9D20460084C0B80236813449A
:1025B000236007F0D3FC206838BD0022F0E700BF9D
:1025C000000C00407C1500208415002080150020A0
:1025D00010B5054B9C68204602F016FC2046BDE86D
:1025E000104002F0EEBE00BF8815002010B5054B6C
:1025F0005C68204602F008FC2046BDE8104002F06E
:10260000E0BE00BF8815002010B5054B1C682046B1
:1026100002F0FAFB2046BDE8104002F0D2BE00BF37
:10262000881500200028ABBF00F16040054B00F585
:10263000614000F00F004FEA0111B4BF195480F857
:102640000013704714ED00E090F85E30022B03D0C9
:1026500090F85E30032B0BD143685A686FF3184231
:102660005A6041F201029969490601D4013AFAD14E
:102670007047000070B5194B90F95C409D6890F967
:102680005D2004F1100645F8261002F110059B6844
:1026900043F8251090F86430002B14BF0125022563
:1026A00029462046FFF7BEFF29461046FFF7BAFF2E
:1026B000002C07DB0A496009012304F01F04A34032
:1026C00041F82030002A07DB0123510902F01F02E4
:1026D0009340034A42F8213070BD00BF00ED00E096
:1026E00000E100E010B590F95D4090F95C0002F067
:1026F000CBF82046BDE8104002F0C6B890F8503044
:10270000012B00F1040109D0022B09D0002B054850
:1027100018BF0020044A42F8231070470348F9E725
:102720000348F7E70926000888150020ED25000872
:10273000D12500081A4B416D02681B68B3FBF1F309
:10274000142142604B439169090401D5013BFAD140
:10275000144B9A420AD103F5DE339A6B42F400120D
:102760009A639A6B22F400129A6370470E4B9A4256
:1027700009D103F5DC339A6B42F480029A639A6BB9
:1027800022F48002F0E7094B9A42EED103F5DA33E6
:102790009A6B42F400029A639A6B22F40002E3E718
:1027A000080000200054004000580040005C004039
:1027B00013B590F85A30072B044625D1D0F88C3049
:1027C00090F874208BB1002A0CBFAA224FF42A4241
:1027D00000929BB2D0F88820B0F8701002F050FA46
:1027E000062384F85A3002B010BD90F85B3043F0F5
:1027F000080380F85B302AB990F85B305B0701D49E
:102800000123EEE70023ECE790F85B3043F0080388
:1028100080F85B30E7E790F85A30062B09D190F842
:1028200074306BB990F85B305B0709D4012380F8F2
:102830005A3090F85B3043F0080380F85B30704703
:102840000023F4E738B50446C260043002F075F99D
:102850002046FFF753FF01462046FFF70BFF201DE0
:10286000BDE8384002F0BCBA012902D180F86110FD
:10287000704711B9012380F862307047002380F857
:10288000613080F86330704710B490F86020022AFD
:10289000034617D1B0F86E200132A0F86E20B0F8D0
:1028A0006E10B0F86C2089B292B291420AD2B0F8A0
:1028B0006E40816E4FF0807311FA84F1012210BCDA
:1028C00002F030BA002283F8622083F8642010BC42
:1028D000704790F86030022B04BF002380F862300C
:1028E00002F07EBA10B5044650F80429136823F0AC
:1028F000FE031360FFF7F6FE022384F85B3010BD81
:1029000070B50C4616461D46FFF724FB0CB1AE42CF
:1029100033D0234B9842234B13D0234A90421BD0F1
:10292000224A904223D19D4226D0214B9D4226D05F
:10293000204B9D4225D040F666021F491F4807F0F4
:1029400027FA9D421FD01A4B9D421ED0194B9D4223
:102950001DD040F6B202F0E79D421AD0144B9D42C2
:1029600019D0144B9D4218D040F6FE02E5E71249FB
:10297000134840F65412E2E7124C204670BD124C48
:10298000FBE7124CF9E7124CF7E7124CF5E7124C53
:10299000F3E7124CF1E7124CEFE7124CEDE700BF02
:1029A00000B4C404801A0600000E2707006CDC0285
:1029B00040420F00A0860100235501082D55010853
:1029C00061550108210C801016085000553EA020CA
:1029D0003A14D110270E81006B4EC1306C1E50008E
:1029E000260A2000B07570103C4B426D1B68B3FB8B
:1029F000F2F314225343426870B504460D469169C0
:102A0000090401D5013BFAD1354B9D4217D122680B
:102A1000344B9A4203D14FF4801002F0CBFE22686F
:102A2000314B9A4203D14FF4001002F0C3FE2268EA
:102A30002E4B9A4203D14FF4800002F0BBFE236874
:102A4000284A93421CD102F5DE32D2F8883023F4B2
:102A5000405343F48053C2F888300021201D02F017
:102A600083FE234B9D4223D0224B9D4220D01C4B02
:102A70009D421DD02049214840F2053207F088F9D7
:102A8000194A934208D102F5DC32D2F8883023F497
:102A9000404343F48043DEE7144A9342DDD102F51C
:102AA000DA32D2F8883023F4403343F48033D2E76B
:102AB000226EA16820682B46FFF722FF0023012227
:102AC000A060C4E90423C4E90833C4E906332566D9
:102AD000E360201D02F031F8656570BD080000203C
:102AE00040420F000054004000580040005C00408D
:102AF000A0860100801A0600235501082D55010803
:102B00001FB5002304460366836079B18B88A0F863
:102B100058308B89A0F85A300B680360013305D117
:102B20003A493B484FF4E47207F032F92368394AD6
:102B3000934244D1002384F8503003F1804303F5DD
:102B400004339A6D42F400129A659B6D03F40013EE
:102B50000193019B42F21F03A4F85C302E49B4F9A3
:102B6000580005F0FDFF2D49B4F95A0005F0F8FFB3
:102B7000B4F95800042100F03BFCB4F95A000421D8
:102B800000F036FC636D0BB9254B63652046FFF7FB
:102B9000D1FD616DFFF728FF636D2366002384F884
:102BA000653084F8643084F8663084F8673084F8DF
:102BB000683084F85F3084F85E3004B010BD194A84
:102BC00093420FD1012384F85030174B9A6D42F491
:102BD00080029A659B6D03F480030293029B42F28C
:102BE0002123B9E7114A9342B8D1022384F8503027
:102BF0000D4B9A6D42F400029A659B6D03F400033D
:102C00000393039B44F64813A6E700BF235501082E
:102C100088550108005400409C7401085474010850
:102C2000A08601000058004000100240005C0040F7
:102C30002DE9F0410D4686B0064616492846144651
:102C400005F0D4FF14490746204605F0CFFF0146A2
:102C5000384605F0A9FF0F498046284605F0DCFFFD
:102C60000D490746204605F0D7FF9C22059000211C
:102C70003046CDF80480ADF808500397ADF8104009
:102C80000BF0B4FC01A93046FFF73AFF06B0BDE8EF
:102C9000F08100BF9C740108547401082DE9F74FBE
:102CA0001E4690F85E300C9F032B044689469246E0
:102CB00054D84FF00008FFF7C7FC002F80F85F8062
:102CC0000CBF4FF0AA0B4FF42A4BFFF717FD01463C
:102CD0002046FFF7CFFCCDF800B0B3B252461FFA42
:102CE00089F1201D01F0CCFF98BB052384F85E30EC
:102CF0001C4B1D68636DB5FBF3F51E2306FB0555E4
:102D00005D4394F85F3013F01E0F01D1013D16D1E1
:102D10002046FFF7E7FC1DB194F85F30082B12D076
:102D20000021204694F85F30FFF7EAFE002384F884
:102D30005E304FF0FF36304603B0BDE8F08F012023
:102D400007F084FFDDE7B7FA87F35B0984F85E30AC
:102D5000F1E784F85E806FF00106ECE76FF00206A1
:102D6000E9E700BF080000202DE9F74F1E4690F864
:102D70005E300C9F032B04468946924654D84FF090
:102D80000008FFF761FC002F80F85F800CBF4FF058
:102D9000AA0B4FF42A4BFFF7B1FC01462046FFF780
:102DA00069FCCDF800B0B3B252461FFA89F1201D7C
:102DB00001F014FF98BB052384F85E301C4B1D689E
:102DC000636DB5FBF3F51E2306FB05555D4394F8D3
:102DD0005F3013F01E0F01D1013D16D12046FFF7E1
:102DE00081FC1DB194F85F30082B12D000212046E1
:102DF00094F85F30FFF784FE002384F85E304FF0D4
:102E0000FF36304603B0BDE8F08F012007F01EFF0B
:102E1000DDE7B7FA87F35B0984F85E30F1E784F801
:102E20005E806FF00106ECE76FF00206E9E700BF95
:102E300008000020F8B590F86060044606B1866886
:102E4000656C636C15F0040518BF1425042B05D1BF
:102E5000002384F85A3084F85B50F8BD271F002106
:102E60003846FFF74DFE46B1022384F86030002358
:102E7000324619463846FFF7E5FC45F00205EAE719
:102E800000487047E4740108024BD869DA6982424D
:102E9000FBD17047007C004008B507F049F8074BAC
:102EA00001221A70064B00221A70064B0222C3F848
:102EB00008219A60BDE8084007F050B8B01500201E
:102EC000AF15002000E100E010B507F031F8134B1A
:102ED0001A7842B9124A126811680907FCD508210C
:102EE000516001221A700F4C23781BB107F0BCFB14
:102EF000002323700C4A002313700C4A13700C4BF0
:102F00000222C3F88820BFF34F8FBFF36F8FBDE855
:102F10001040C3F8882107F021B800BFAC1500208D
:102F2000B4150020A4150020AF150020B015002016
:102F300000E100E070B53F4B1C68B4B024B134B080
:102F4000BDE87040FFF7C0BF01258422214613A8C9
:102F50001D600BF04BFB4022214602A80BF046FB04
:102F6000042301934FF40073129301A84FF44023FC
:102F70000395299302F0DAFD10B12F4807F044F9C8
:102F800012A803F08FFA08B12C48F7E72C4B2D4C10
:102F90009A6D42F000429A659A6D02F000420092EA
:102FA000009A9A6B42F000429A639A6B22F00042B8
:102FB0009A63A3F5CA33C4E90100C4E90300C4E974
:102FC0000800C4E90A00236084F836004FF4802327
:102FD000E06120634FF6FF762046C4E9056302F006
:102FE00019FC054608B11848C8E7184B184A9B68F1
:102FF000C3F84421174A136A43F00103136223689C
:103000009A6842F001029A609A6842F008029A6057
:103010003146204602F05AFC236808225A605D615E
:103020001A681207FCD508225A600B4B01221A704D
:1030300034B070BDA0150020A2550108BB55010891
:1030400000100240B4150020DC55010800ED00E03E
:103050004D31000800040140AC15002008B506F011
:1030600067FF064B1B6801225A60054B0222C3F81A
:103070008821BDE8084006F071BF00BFB4150020EC
:1030800000E100E070B5044606F052FFFFF7FCFED9
:10309000264B05461C60264A02219160254E327857
:1030A000F2B9611F4FF6F572914223490FD94FF6DD
:1030B000FA7290420BD906340122A4B20A701C6045
:1030C0001E4B01221A70BDE8704006F047BF002277
:1030D0000A701B68AB421A4B28BF01221A70EFE737
:1030E000FFF7BCFF00235A1992B2A24208BF053471
:1030F00003F1010308BFA4B2052BF4D1114BAC427C
:103100001B6811D24FF6FA7295420DD84FF0FF327C
:103110005A6100230C4C33702378002BD3D107F075
:103120008DFA01232370CEE75C61F2E7A815002039
:1031300000E100E0AC150020AD150020AF15002027
:10314000AE150020B4150020A415002070B506F0BF
:10315000EFFE2C4B2C4C1A7832B1226800211970EA
:103160000123536005F0F2FC23681A68D50706D5E1
:103170009A68D00703D501225A6005F0E7FC23685E
:103180001A68110724D59A68120721D508225A60B7
:103190001E4B1F4C01221A7023781BB107F064FAF2
:1031A000002323701B4C237893B11B4D1B492B78B4
:1031B00003F0FF06B3B1FFF767FE0B68063080B27D
:1031C000984209D3FFF768FE00232B700023237079
:1031D000BDE8704006F0C2BE0868063880B2FFF74E
:1031E00051FFF1E70E4D2B7843B1FFF74DFE0B6811
:1031F000984203D3FFF750FE2E70E7E70868FFF709
:1032000041FFE3E7B0150020B4150020AC15002005
:10321000A4150020AF150020AD150020A815002032
:10322000AE150020FFF750BE7047000010B50D4CE2
:1032300004F084F901F007FBD4F890309B0707D421
:1032400002F06CFBD4F8903023F01803C4F89030EF
:10325000FEF74CFE04F072F9FFF7E6FF024B012285
:103260001A6010BD00100240EC15002030B591FA34
:10327000A1F391FAA1F1B3FA83F384685B0003250B
:10328000B1FA81F105FA03F3490024EA03038A4005
:103290001A43826030BD30B591FAA1F391FAA1F1E1
:1032A000B3FA83F3C4685B000325B1FA81F105FA30
:1032B00003F3490024EA03038A401A43C26030BD85
:1032C000B0F1FF3F2DE9F84380460F4600F08780BC
:1032D00000F00F02434BC0F3031053F82250C1F328
:1032E000831901F00706FFF773F8B9F10F0F0CBF50
:1032F00003224A4629460446FFF7B8FF032E65D845
:10330000DFE806F0696B3302032395FAA5F2B2FAFF
:1033100082F221685200032000FA02F221EA02013F
:1033200095FAA5F2B2FA82F2520093400B43236061
:10333000E36AF90206F1FF364CBF2B43AB43012E83
:10334000E36205D863683A074CBF2B43AB43636025
:10335000C7F30112012A02D0022A18BF002229460F
:103360002046BDE8F843FFF796BF18F0080FC7F3F3
:10337000832217D02B0A93FAA3F1B1FA81F1406AA4
:1033800093FAA3F389004FF00F0CB3FA83F30CFA0E
:1033900001F19B0020EA010102FA03F30B4363628F
:1033A0000223B2E795FAA5F3B3FA83F3016A9B000F
:1033B0000F2000FA03F321EA030195FAA5F3B3FA0B
:1033C00083F39B009A400A432262E9E706490748D3
:1033D000D52206F0DDFC002397E7012395E7BDE841
:1033E000F88300BFEC740108975601085B69010877
:1033F000431C70B50D4634D000F00F02194BC0F3DA
:10340000031053F82240FEF7E3FF94FAA4F194FA74
:10341000A4F20668B1FA81F18AB149000323B2FA35
:1034200082F28B4033405200D340013B012B06D83F
:10343000EB1E022B436894BF2343A3434360013D2B
:10344000042D0CD8DFE805F00309030B0900012265
:103450002146BDE87040FFF71EBF0222F8E70022B8
:10346000F6E770BDEC74010870B5B4B044220021D9
:1034700001A80BF0BBF88822002112A80BF0B6F8C7
:10348000294B1E68002E4DD1284C01251D60A36DCF
:1034900043F08053A365A36D03F080530093009B1A
:1034A00002F03CFA04230DEB030001930B96039505
:1034B00002F03CFB10B11E4806F0A6FED4F8903096
:1034C00023F4407343F48073C4F890304FF4003316
:1034D000129312A84FF48073339302F0E3FF08B104
:1034E0001448E9E7D4F8903043F40043C4F890302E
:1034F000114C124B2360C4E9060084F8210060607F
:103500007F22FF23206160612046C4E9022303F08B
:103510002BFA08B10A48CFE7204603F033FB08B185
:103520000848C9E734B070BD1416002000100240EE
:10353000A0560108C0560108F015002000280040E0
:10354000E95601080457010830B5204B20481C6893
:1035500020495D688DB004401A680240A24205EA25
:1035600001052CD15A680A40AA4228D105F03F0033
:1035700003F0FFFA0690C5F3042003F0FAFA0138CD
:103580000790280C03F0F5FA44300890C4F3054086
:1035900003F0EFFA0590C4F3062003F0EAFA049072
:1035A00004F07F0003F0E5FA01220390694603A8C6
:1035B00006F0F8FE38B1DDE900010DB030BD1C6841
:1035C0005D680440C8E700200021F6E700280040BD
:1035D0007F7F7F003FFFFF00D0B5002490B0142212
:1035E00006460F4602A8214601940AF0FFFF06F0A6
:1035F0009FFC1F4A1F4B13603046012307AA394620
:1036000006F022FF90B30D9B19488DF80B40A342A2
:1036100008BF07238DF804309DF82C3001338DF856
:1036200005300A9B8DF806309DF83030443B8DF80C
:103630000730099B8DF80830089B8DF80930224629
:10364000079B8DF80A3001A9CDE9054403F044FA3F
:10365000024610B1084806F0D7FD054802A903F05C
:10366000D7F908B10548F6E706F078FC10B0D0BDF0
:10367000F0150020002800401E57010835570108AA
:10368000024BD868C0F30010704700BF002800400C
:103690000FB407B5064B04AA1B6852F8041BD86880
:1036A000019206F09FF903B05DF804EB04B0704797
:1036B000480800200368474A934210B504461ED1CB
:1036C00002F55842116C41F480411164116C21F4EF
:1036D00080411164116E21F4804111663E4A93428B
:1036E0001DD13E4BDA6B42F00102DA63DA6B22F055
:1036F0000102DA63DA6D22F00102DA650FE0384A7E
:10370000934236D1354B9A6B42F400329A639A6BEE
:1037100022F400329A639A6D22F400329A65B4F969
:10372000180040F2C331FFF7CBFDB4F91A0040F2A4
:10373000C331FFF7C5FD236A23F40073B3F5807F1F
:1037400005D1B4F9240040F2C331FFF7B9FD236A73
:1037500023F48073B3F5007F05D1B4F9260040F25D
:10376000C331FFF7ADFD62681E4B002143F8221004
:1037700010BD1D4A93420CD1184B9A6B42F4802223
:103780009A639A6B22F480229A639A6D22F48022C3
:10379000C4E7164A93420CD1104B9A6B42F40022B4
:1037A0009A639A6B22F400229A639A6D22F40022A3
:1037B000B4E70F4A934291D1084B9A6B42F48012BE
:1037C0009A639A6B22F480129A639A6D22F48012A3
:1037D000A4E700BF00380140008000400010024014
:1037E000004400405C15002000480040004C0040B0
:1037F00000500040436884225343054AD358DA6995
:10380000120744BF08221A62D869C0F340107047FB
:1038100044120020436884225343034AD358D86992
:10382000C0F3C010704700BF4412002070B5466856
:10383000204A05688168842373439C18D5506160D1
:10384000C368A3600369E36043692361036AA361FA
:103850000023A4F85230A4F85030A4F85A30A4F849
:103860005830C4E90833E361B0F91A30013318D095
:10387000B0F91830581C0CBF04230C23842000FB23
:10388000062253610C4B9D4206D142F6AA2399426F
:10389000204608D803F00BFE2046BDE8704003F038
:1038A000C8BD0823EAE703F0F2FD204603F00FFE4F
:1038B000F2E700BF441200200080004070B50268AB
:1038C000274B9A42B4B004460D46816018D1842239
:1038D000002113A80AF08AFE20231293214B9D4257
:1038E00019DD4FF4806312A8259302F0DBFD20461A
:1038F000FFF79CFF002831D01B482946FFF7C8FE80
:103900002046FFF793FF48B31848294634B0BDE876
:103910007040FFF7BDBE164E316811F480610FD1C3
:10392000402202A80AF062FE022301934FF4807342
:10393000049301230B9301A81023059302F0F6F8DA
:1039400033685B05CDD54FF4006312A8259302F0D0
:10395000A9FD2046FFF76AFF0028C2D134B070BD30
:1039600000800040556151004C57010897570108ED
:1039700000100240012A10B50ED0022A24D00024E3
:103980000929446123D010DC072910D008290CD163
:1039900012B34FF480520DE04FF4C0620829426127
:1039A000F7D0092915D0072916D00C4812E09AB98A
:1039B0004FF08052C2609A1E534253415B03BDE8F0
:1039C00010400361FFF732BF4FF48062E6E7002A40
:1039D000DFD0034806F018FC0022EBE7F05701089F
:1039E000C1570108124B984217D0A3F5744398426F
:1039F00015D003F58063984213D003F58063984295
:103A000011D003F5806398420FD003F540539842DC
:103A10000CBF05204FF0FF30704700207047012099
:103A2000704702207047032070470420704700BF92
:103A3000003801402DE9F0470F4686B06149044641
:103A40003846164605F0D2F85F498046304605F004
:103A5000CDF80146404605F0A7F85A4905463846D4
:103A600005F0DAF858498246304605F0D5F8022FBD
:103A700081460AD0032E08D05249022005F0B6F83C
:103A800040450CD1514806F0BFFB4FF00108691CBE
:103A9000256007D14E494F48412206F079F94FF091
:103AA0000008F4E74C4B9D4219D103F558431A6EB8
:103AB00042F480421A661B6E03F480430093009B1D
:103AC000464B9D4219D103F5C833DA6D42F001022D
:103AD000DA65DB6D03F001030593059B0DE0404BB8
:103AE0009D4214D103F5E6339A6D42F400329A6593
:103AF0009B6D03F400330193019B2846FFF772FF8F
:103B00006060013030D132493648A022C5E7364BDB
:103B10009D420BD103F5E4339A6D42F480229A65FD
:103B20009B6D03F480230293029BE6E72F4B9D429B
:103B30000BD103F5E2339A6D42F400229A659B6D36
:103B400003F400230393039BD7E7294B9D42B7D18E
:103B500003F5E0339A6D42F480129A659B6D03F48D
:103B600080130493049BC8E751463846FFF7A8FB2F
:103B700001213846FFF73CFC49463046FFF7A0FBE1
:103B800030460121FFF734FC00234FF4E132C4E951
:103B90000223C4E904332362278366832046FFF7A8
:103BA00045FEB8F1000F0AD0124B134801221A60EB
:103BB00021464C2206B0BDE8F0470CF0B1BB06B080
:103BC000BDE8F087C4730108347301081E5801086A
:103BD000F8580108055901080038014000800040EC
:103BE000004400402159010800480040004C0040BA
:103BF0000050004064160020181600201E4B186864
:103C000010F0010018BFD8691C4B1A681CBFC0F324
:103C1000801080F00100D20741BFDB69C3F380133D
:103C200083F001031843164B1A68D10741BFDB69C3
:103C3000C3F3801383F001031843124B1A68D207B1
:103C400041BFDB69C3F3801383F0010318430E4BBC
:103C50001A68D10741BFDB69C3F3801383F0010306
:103C600018430A4B1A68D20741BFDB69C3F38013BC
:103C700083F00103184370470038014000440040BE
:103C800000480040004C00400050004000800040D0
:103C9000034A516A536A5B1A8342FBD3704700BFE1
:103CA000000C004010B5002486B01422214601A863
:103CB00000940AF09BFC694601A802F0D1FA0F2398
:103CC0000099019301A8CDE902440594049402F0FF
:103CD000B3F910B1024806F097FA06B010BD00BF64
:103CE0003359010800B593B00021442201A80AF01D
:103CF0007DFC0F4B9A6D42F080529A659B6D03F0EC
:103D00008053009301A8009B02F04EFA1023019308
:103D100001210023B02201A8CDE9071309920B93DA
:103D200001F004FF10B1034806F06EFA13B000BDB5
:103D3000001002405B59010808B506F0F9F8074B7E
:103D4000186810F480404FF0010118BF4FF4804014
:103D500001F0ECFDBDE8084006F000B9007000403D
:103D600073B5FFF74BFF002839D11E4C06F0E0F881
:103D700000F0BEFC1C4AA56D166815F0805506F4CF
:103D8000804608D1A36D43F08053A365A36D03F073
:103D900080530193019B0EB101F000FE012001F060
:103DA0001DFE0EB101F0F2FD1DB9A36D23F080538D
:103DB000A3650E4C00232360FFF794FFFFF772FF0B
:103DC000FEF794F84FF4FA70FFF762FF00F0A8FCDA
:103DD0000123236002B0BDE8704006F0BFB802B016
:103DE00070BD00BF0010024000700040EC150020C4
:103DF000B0F5E06F2CD00FD8B0F5A06F28D008D860
:103E0000B0F5407F24D0B0F5806018BF4FF0FF3090
:103E10007047B0F5C060F8E7B0F5406F1AD00FD822
:103E2000B0F5206F16D008D820F48070B0F5006F80
:103E300014BF4FF0FF3001207047B0F5306FF7E747
:103E4000B0F5606F06D020F40070B0F5506FEFE76A
:103E5000002070470120704713B5044602F0D7FFD9
:103E6000A36EDA680192019A9B680193019B02B0EC
:103E700010BD0000014B186802F03ABF7016002018
:103E8000014B186802F034BF6C160020014B186813
:103E900002F02EBF681600200268136823F040036A
:103EA00010B5136000234362044602F087FE10B190
:103EB000074806F0A9F964622046FFF7CDFFA36822
:103EC00023B92268136843F04003136010BD00BF9C
:103ED000055B01082DE9F0410F4612491446804662
:103EE00004F084FE10490546384604F07FFE0F4971
:103EF0000646204604F07AFE0137044605D1014605
:103F00002846BDE8F04104F04FBEB8F1FF3F02D1B2
:103F100001463046F5E73146284604F045FE214685
:103F2000EFE700BFE07201088C72010838720108E7
:103F30002DE9F04F884687B07A49BDF940600446C4
:103F4000404615461F4604F051FE774982462846F2
:103F500004F04CFE75498346384604F047FE744928
:103F60008146304604F042FE59460090504604F027
:103F70001BFE00998246484604F016FE0146504654
:103F800004F012FE67498146404604F045FE66494A
:103F90008346284604F040FE64498246384604F0D1
:103FA0003BFE63490090304604F036FEB9F1FF3F16
:103FB0000190C4F8689005D15E495F4840F20D1247
:103FC00005F0E6FE0022E2675C4A91456BD15C4B4E
:103FD0001A6C42F480521A641A6C22F480521A64E9
:103FE0001A6E42F480521A661B6E03F480530393D8
:103FF000039B232384F86430012384F88030514BE1
:104000001C6059464046FFF75BF902214046FFF726
:10401000EFF951462846FFF753F900212846FFF7EC
:10402000E7F900993846FFF74BF938460021FFF7CA
:10403000DFF9701CA4F86C50A4F86E80A4F87070BE
:10404000A4F8726069D001993046FFF739F9002170
:104050003046FFF7CDF94FF4802208236363A36E47
:104060002360691C4FF482734D4263604FF0380344
:104070004D41A261E36107220023C4E90B23ED0354
:104080004FF4E062B4F97000A560C4E90433A362A0
:10409000E26023620221FFF7ABF9204607B0BDE8DA
:1040A000F04FFFF7F9BE284A914519D1244B9A6B7E
:1040B00042F480429A639A6B22F480429A639A6D2A
:1040C00042F480429A659B6D03F480430493049B01
:1040D000242384F86430022384F880301B4B8FE75C
:1040E0001B4A91458DD1164B9A6B42F400429A635C
:1040F0009A6B22F400429A639A6D42F400429A65E8
:104100009B6D03F400430593059B332384F86430CF
:10411000032384F880300F4B72E74FF400720023C2
:104120009CE700BFE07201088C7201083872010838
:10413000E4710108255A01081B5B010800300140A9
:104140000010024070160020003800406C1600205D
:10415000003C00406816002090F8813010B50446FD
:104160005BB190F88000394B013800EB40001844F7
:1041700000F0EEFA002384F8813094F882305BB1CD
:1041800094F88000324B013800EB4000184400F0F6
:10419000DFFA002384F882302268136823F040039A
:1041A0001360204602F08CFDA36E2A4A93422AD166
:1041B000294B1A6C42F480521A641A6C22F4805211
:1041C0001A641A6E22F480521A66B4F96C0040F236
:1041D000C331FFF775F8B4F96E0040F2C331FFF751
:1041E0006FF8B4F9700040F2C331FFF769F8A369C2
:1041F000B3F5007F28D0B4F9720040F2C331BDE8B6
:104200001040FFF75DB8154A93420DD1124B9A6BDF
:1042100042F480429A639A6B22F480429A639A6DC8
:1042200022F480429A65D0E70D4A9342CDD10A4BE1
:104230009A6B42F400429A639A6B22F400429A63AA
:104240009A6D22F40042EDE710BD00BF91750108A0
:10425000887501080030014000100240003800401D
:10426000003C004010B50446081F0C289ABF01F11D
:10427000FF3109024FF4E061012A20D0022A20D048
:1042800012B3022001226261A269B2F5007FC4E983
:1042900003102CD0D3B10023A361A268B4F96E003F
:1042A0000023B2F5004F636008BFA3600021FFF751
:1042B0009FF8B4F96C000221FFF79AF809E000209A
:1042C000E1E710460022DEE71046DCE74FF48023EA
:1042D000A3612369B4F97000002B14BF01210221EE
:1042E000FFF786F82046BDE81040FFF7D5BD002B4C
:1042F000EFD0D2E710B50446FDF7B6FFE369382BDF
:1043000003D8064AD35CFF2B05D1054905484FF475
:104310006B7205F03DFD0133184110BD2C7501088D
:10432000255A0108365B01082DE9F84F0446C0689C
:10433000DDF82880FFF75CFDB0F1FF3F1546994698
:10434000824605D13249334840F2F94205F020FD5A
:10435000A36E1A68012722F0400287401A60A5B1B7
:104360001A6822F4444242F440421A601A6842F049
:1043700040021A600022AA42A36E1DDB9A68110651
:10438000FCD41A6822F040021A60B8F1000F0FD076
:10439000A26E136823F4444343F4004313602046A1
:1043A000FFF7A8FF00261C4B93FBF0FB46450FDBF5
:1043B00005EB0800BDE8F88F98688007FCD5BAF1D6
:1043C000010F0BBF885A885C988118733A44D2E772
:1043D00005F0AEFDA26E136843F04003136058462B
:1043E00006F03EFCA26E136823F04003136005F054
:1043F000B5FDA36E9A68D207FCD5DB68BAF1010F50
:104400000CBF29F8063009F806303E44CEE700BF5D
:10441000255A0108625A010800CA9A3B38B5044679
:104420000D46FDF721FF00EBD07040100023A8429D
:1044300003DD0133082B09D10723064A52F8233044
:10444000E3612046BDE83840FFF726BD00EBD070A1
:104450004010ECE7687501081FB583680391B3F558
:10446000004F02460AD100230093012203A9FFF75F
:104470005BFF013818BF012005B000BDC068FFF721
:10448000B7FC431C05D11049104840F2645205F0B6
:104490007FFC936E5968A0B941F4805159609968C6
:1044A0008907FCD50399012814BF19739981936E6C
:1044B0009A68D207FCD50128D8680CBF80B2C0B278
:1044C000DAE721F48051E9E7255A0108625A010828
:1044D0002DE9F04F85B08146C06802910393FFF744
:1044E00087FC42FA00F585409542DDF838A09DF83A
:1044F0003C709346044605D02249234840F28A5234
:1045000005F046FC4AFA00F68640564504D01D499F
:104510001E4840F28B52F3E7D9F808005245904606
:10452000B8BFD04620BB07EB072547EA0523012685
:10453000A640012C08BF1D460746474503DB404601
:1045400005B0BDE8F08F5F4510DA029B012C0CBF6F
:10455000D95BD95D4846FFF77FFF574504DA039BD7
:10456000012C0CBFD853D8553744E6E72946F1E76C
:1045700000964846FFF7D8FE3544854218BF4FF0F5
:104580000008DCE7255A01084C5B01087B5B010849
:10459000074B084A13601A69910707D5DA68920732
:1045A00004D56FF002021A6104F048BD704700BFE5
:1045B000000C004080160020004870479C750108E0
:1045C00030B589B001A903A801F04AFE01F0C8FD89
:1045D000204B01909A6D204C42F008029A659A6D2A
:1045E00002F008020292029A9A6B42F008029A6361
:1045F0009A6B22F008029A63069AA3F501332360AE
:104600004FF0FF33E360154BFAB9B0FBF3F3581EDC
:104610000025606010482561C4E90555A56002F0D9
:104620006DFC0F4B0F4A9B68C3F808210E4B4FF4EB
:1046300080225A600848294602F09EFC2268D3680E
:1046400023F00203D36009B030BD4000B0FBF3F0AB
:104650000138DDE7001002408016002040420F00C4
:1046600000ED00E09145000800E100E00448026828
:10467000D36823F00203D360002102F07DBC00BFA9
:1046800080160020014B586A704700BF000C0040A4
:10469000054B1B686FF0020258631A61DA6842F03A
:1046A0000202DA60704700BF80160020064B1B68CC
:1046B0006FF002021A615A6942F002025A61DA6826
:1046C00042F00202DA60704780160020034B1A683D
:1046D000D36823F00203D360704700BF8016002028
:1046E000024B1B686FF002021A61704780160020AF
:1046F000064B074A1B68596A11605A6B054B1A60D2
:10470000054BDA68054B1A60704700BF8016002021
:104710007C16002078160020000C00407416002043
:10472000064B074A1B6812685A62064A12685A63A7
:10473000054B1A68054BDA60704700BF80160020F1
:104740007C1600207816002074160020000C004013
:1047500070B503784478104D013B013CC3EBC303B3
:1047600053FA84F3064655F8230000F09FF8337897
:10477000013BC3EBC30353FA84F355F8230008F05D
:10478000C7FB3378013BC3EBC30353FA84F4002324
:1047900045F8243070BD00BFCC160020014B1868CE
:1047A00000F0F6B8CC160020014B586800F0F0B8C5
:1047B000CC160020014B986800F0EAB8CC16002017
:1047C000014BD86800F0E4B8CC160020014B186902
:1047D00000F0DEB8CC160020014B586900F0D8B8C4
:1047E000CC160020014B986900F0D2B8CC160020FE
:1047F000014BD86900F0CCB8CC160020014B186AE8
:1048000000F0C6B8CC160020014B586A00F0C0B8C2
:10481000CC160020014B986A00F0BAB8CC160020E4
:10482000014BD86A00F0B4B8CC160020014B186BCD
:1048300000F0AEB8CC160020014B586B00F0A8B8C1
:10484000CC160020704710B5032000F00BF80F20A5
:10485000FDF788FE044618B9FFF7F4FF204610BDA7
:104860000124FBE70749CA6822F4E062030212044C
:1048700003F4E063120C134343F0BF6343F40033CB
:10488000CB60704700ED00E000280CDB43090649CF
:1048900000F01F0020330122824041F82320BFF3A3
:1048A0004F8FBFF36F8F704700E100E010B5002815
:1048B0003DD00468236823F0010323601D4B9C4214
:1048C0004FF014022CD81C4B1C49E318B3FBF2F335
:1048D0009B000022C0E91013226003F01C03012496
:1048E0009C404C600F2404FA03F3144CA1420BBF0C
:1048F000D1F8A840D4F8A81424EA030321EA03035A
:104900000CBFC1F8A830C4F8A834C263C0E90B22B8
:10491000C0E90D2280F8252080F82420002010BD59
:10492000074B0849E318B3FBF2F39B00D1E70120E2
:10493000F5E700BF07040240F8FFFDBF000002409A
:10494000F8FBFDBF0004024010B590F82520022AB4
:1049500003D00422C263012010BD0268836B11687A
:1049600021F00E011160116821F001011160D0E900
:104970001042012102F01C0201FA02F262600022E0
:1049800080F8251080F8242003B198470020E3E741
:10499000016C426C036870B402F01C020E681D6862
:1049A0000424944034420ED015F0040F0BD01A6842
:1049B00092065EBF1A6822F004021A60036B4C6014
:1049C00073B370BC184702249440344212D015F0DF
:1049D000020F0FD01A68950606D41A6822F00A0250
:1049E0001A60012380F8253000234C6080F82430C1
:1049F000C36AE5E708249440344211D02C070FD550
:104A00001C6824F00E041C60012303FA02F24A60C1
:104A1000C36380F82530002380F82430436BCFE750
:104A200070BC704790F82500704703689A69910739
:104A300044BF00229A629A69D2075EBF9A6942F027
:104A400001029A617047000030B5039D046845EA91
:104A500002421A43054B6068C1F3090143EA55530A
:104A60000A4320EA03000243626030BDFF63FF0394
:104A700010B5426B174CA2420BB202D0164CA242A8
:104A80000FD1002B20DB102920D0202920D0A1F12C
:104A90004004614261418B0101680A6813430B6065
:104AA00010BD002B41F30003B4BFB822002203F075
:104AB000F20313438A0702D543F0F403ECE72029FD
:104AC000EAD143F02003E7E7B823E5E79023E3E7E3
:104AD0006023E1E7C75200084D55000811F00103BB
:104AE00007D090F8413003F02803282B14BFF2239D
:104AF00042238A0709D590F8412002F02802282A8B
:104B00000CBF43F0440343F0F4030A0401680A684D
:104B100048BF43F0B80322EA03030B607047C36A3F
:104B2000AA2B02D10023C3627047C36AB3F52A4F90
:104B3000FAD14FF00073F6E7704710B5044600282D
:104B40004AD090F8413003F0FF021BB980F84020B2
:104B5000FFF7F2FF242384F8413023681A6822F01B
:104B600001021A60626822F070621A619A6822F487
:104B700000429A60D4E90221012924D142F4004282
:104B80009A605A6842F0007242F400425A60DA6851
:104B900022F40042DA60D4E904210A43A16942EA1E
:104BA0000122DA60D4E907210A431A601A6842F048
:104BB00001021A6000202023606484F841302063E1
:104BC00084F8420010BD42F4044202299A6004BFF6
:104BD0004FF400625A60D4E70120F3E737B504468A
:104BE000069894F84150202D44D194F84050012D5E
:104BF00040D0012584F84050212584F841501025EB
:104C000084F84250002565646385E0621A4B636353
:104C1000638D62629BB2FF2B9BBF638D2385FF2355
:104C2000E26A88BF2385236B88BF4FF08072112B07
:104C300004D1AA2802D0B0F52A4F09D12046FFF7A7
:104C40006EFF638D9BB2FF2B00D8E26A0B4B00E036
:104C50000023009320461346002594F82820FFF7F0
:104C6000F3FE204684F840500121FFF701FF28465B
:104C700003B030BD0220FBE7A951000800200080EE
:104C800037B50446069894F84150202D44D194F845
:104C90004050012D40D0012584F84050222584F851
:104CA0004150102584F84250002565646385E06218
:104CB0001A4B6363638D62629BB2FF2B9BBF638D54
:104CC0002385FF23E26A88BF2385236B88BF4FF0CB
:104CD0008072122B04D1AA2802D0B0F52A4F09D134
:104CE0002046FFF71CFF638D9BB2FF2B00D8E26AC2
:104CF0000B4B00E00023009320461346002594F858
:104D00002820FFF7A1FE204684F840500221FFF73B
:104D1000AFFE284603B030BD0220FBE7A9510008D2
:104D200000240080F8B51E4690F8413003F02803B7
:104D3000282B04460F46154601D00120F8BD01B1CD
:104D40001AB94FF400736364F7E748F20201FFF702
:104D5000C5FE90F84030012B3CD090F84130012145
:104D6000292B80F8401013D1FFF7B8FE03681A68AA
:104D700052040DD51A68806B22F480421A6038B153
:104D8000154B8363FFF7E0FD10B1A06B836B984771
:104D90002A2384F8413021680022202384F84230FD
:104DA00062644B6823F400434B606585638D238503
:104DB000E6620A4B63638B696762DB035CBF0823AF
:104DC000CB61204684F8402048F20201FFF750FEF4
:104DD0000020B3E70220B1E753570008455600080A
:104DE00008B590F84120202A0AD1282280F84120D5
:104DF000044A42634FF40041FFF73AFE002008BD29
:104E00000220FCE745560008036899691A68436B5D
:104E100003B11847704738B5002580F8425090F824
:104E20004130212B4FF0200380F841300AD111236B
:104E3000036345630121FFF751FE80F84050FDF701
:104E4000B7FC38BD1223036345630221FFF746FE1A
:104E500080F84050FDF7DFFCF3E708B503681A68F7
:104E6000002180F84210510415D51A6822F48042BE
:104E70001A6090F84130292B13D1282380F8413053
:104E8000212303630121FFF729FE002380F840302E
:104E9000FDF7F4FC08BD1204EBD51A6822F40042B9
:104EA000E6E790F841302A2BF4D1282380F84130EE
:104EB000222303630221FFF711FE002380F8403014
:104EC000FDF7E2FCE6E790F8412002F02802282AEC
:104ED000F8B5036834D19E69C2689D699968DF6836
:104EE0002D0C022AC6F3004605F0FE051FD185EA07
:104EF000D11515F00605C1F309020ED1816C0131FF
:104F00008164816C022907D108218564D96180F808
:104F100040503146FDF7A8FCF8BD4FF40041FFF7C3
:104F2000DDFD002380F8403007F0FE02F1E74FF48A
:104F30000041FFF7D3FD002380F840302A46E8E720
:104F40000822DA61002380F84030E5E708B5154B08
:104F5000C362202200230363436380F8412080F86A
:104F600042304B0711D503685A6A436A1A70436A84
:104F700001334362038D43B1013B0385438D013B04
:104F80004385436C43F00403436448F20301FFF795
:104F9000A5FD03681022DA61002380F84030FDF798
:104FA00098FC08BD0000FFFF7047704790F8412053
:104FB000602A08B54FF0000208D1202180F8411086
:104FC00080F840200263FDF78DFC08BD026380F885
:104FD0004020FDF72FFFF8E770B50022344D90F820
:104FE000413080F84220C5624285426C283B0A432A
:104FF000022B044642642AD80321FFF76FFD2823C1
:1050000080F841302B4BA06B6363236B002830D0BA
:10501000112B01D0212B2CD123681A68510442BFD7
:105020001A6822F480421A60FFF7FCFC01281BD0AA
:10503000A06B214B8363002384F84030FFF784FC8E
:10504000002834D0A06B836BBDE87040184748F24D
:105050000301FFF743FD90F84130602B1CBF202374
:1050600080F841300023CEE72046BDE87040FFF7CE
:105070009DBFE06B0028F7D0122B01D0222BF3D17B
:1050800023681A68120442BF1A6822F400421A60A8
:10509000FFF7C8FC0128E7D0E06B074B83630023D0
:1050A00084F84030FFF750FC08B1E06BCBE770BDEF
:1050B0000000FFFF455600085357000873B5056808
:1050C0002023EB6190F84130212B04460E4635D168
:1050D0000121FFF703FD112323636B6823F0FF73A6
:1050E00023F48B3323F4FF7323F001036B6000235D
:1050F0006363F206A3F58033E36205D51023EB6109
:10510000636C43F00403636494F84130602B05D171
:10511000730741BF6B6ADBB20193019B2046FFF727
:1051200084FC636C94F84120602A00D07BB1616CF0
:10513000204602B0BDE87040FFF74EBF90F8413006
:10514000222BCAD10221FFF7C9FC1223C4E794F82D
:105150004120212A12D1202284F84120236394F88F
:10516000422084F84030402A84F8423003D1FFF7CF
:105170001BFF02B070BDFDF71BFBFAE794F841205E
:10518000222AF6D1202284F84120236394F8422079
:1051900084F84030402A84F8423002D1FFF705FFFE
:1051A000E7E7FDF738FBE4E773B590F84030012BF3
:1051B00004460D46164600F084800123CA0680F896
:1051C000403017D5F30615D503681022DA61436C19
:1051D00043F004034364FFF728FCAA0605D5B30691
:1051E00003D529462046FFF769FF002084F84000D8
:1051F00002B070BD680711D571070FD523685A6AD0
:10520000636A1A70636A25F0040501336362238DB3
:10521000013B2385638D013B6385DEE7AA0707D544
:10522000B30705D5636A226813F8011B9162EDE7A5
:10523000280631D571062FD5638D22689BB2FBB14C
:10524000208DE8B95168638D9BB2FF2BC1F3090132
:1052500008D9FF2222854FF0807300902046FFF787
:10526000F3FBBAE7628DE36A228513F5803FD2B281
:1052700002D0E36A0090F1E700904FF00073EDE791
:1052800053689A0103D42046FFF7C5FDA5E74021E6
:105290002046FFF7A1FEA0E76B069ED570069CD5C1
:1052A000638D9BB2002BF2D123685A68910194D48C
:1052B000E26A12F5803FE6D15A6842F480425A60B1
:1052C0008BE7022094E773B590F84030012B044639
:1052D00075D0012380F84030CB0612D5D60610D504
:1052E00003681022DA61436C43F004034364202115
:1052F000FFF7BEFBFFF799FB002084F8400002B0E7
:1053000070BD0D063ED550063CD52668336823F0A7
:1053100040033360638D9BB243B37168638D9BB26E
:10532000FF2BC1F3090117D9FF2525854FF08073A5
:10533000002200922046EAB2FFF786FB638D5B1BDA
:10534000638594F84130222B33680CBF43F400434B
:1053500043F480433360CFE7658DE36A258513F519
:10536000803F14BFE36A4FF00073E1E773689A016E
:1053700003D42046FFF74FFDBEE740212046FFF74C
:105380002BFEB9E74B0612D5560610D5638D9BB29E
:10539000002BF2D123685A689501ADD4E26A12F568
:1053A000803FE6D15A6842F480425A60A4E78806FA
:1053B000A2D59306A0D52046FFF780FE9CE70220E9
:1053C0009DE7036899691A6810B4CC0508D51406DE
:1053D00006D5446C44F0010444644FF48074DC61ED
:1053E0004C0508D5140606D5446C44F00804446402
:1053F0004FF48064DC61890508D5120606D5426C3D
:1054000042F0020242644FF40072DA61416C11F022
:105410000B0F02D010BCFFF7DFBD10BC70470000BF
:10542000F8B505682F6890F841302022213B0446EA
:105430000E46EA61092B0CD8DFE803F005530B0B8D
:105440000B0B0B0B055348F20101FFF747FB212320
:1054500023636B6843F400436B606B6823F0FF7356
:1054600023F48B3323F4FF7323F001036B60204696
:10547000FFF7DBFA79043AD52B6823F480432B60DD
:10548000A36B13B11B685B68638573070ED5636AF2
:105490006A6A1A70636A01336362238D26F0040618
:1054A00023B1013B2385638D013B6385638D9BB2F3
:1054B0001BB1636C43F004036364002384F842303F
:1054C000656C6363DDB1616C2046FFF785FD94F880
:1054D0004130282B25D131462046BDE8F840FFF762
:1054E00035BD48F20201FFF7F9FA2223B0E73A048A
:1054F000CBD52B6823F400432B60E36BC1E7E36A51
:1055000013F5803F0ED02046FFF7A7FC0E4BE36259
:10551000202384F8413084F8405025632046FDF76D
:10552000D8F9F8BD94F8413084F84050222B4FF060
:10553000200384F841302046256302D1FDF7A4F909
:10554000EFE7FDF79BF9ECE70000FFFFF8B590F8F7
:105550004030C76A012B04460E46154670D0012321
:1055600080F840308B0603D5AA0601D5FFF758FF17
:10557000F3065DD5E8065BD515F4404F54D0E26BD9
:10558000FAB115F4004304D013685B68B3FA83F3EF
:105590005B09A26B22B1690402D5126852680AB194
:1055A000012B21D194F84130282B0CD1B7F1007F89
:1055B00009D131462046FFF7C9FC002084F840009D
:1055C000F8BD1346E5E794F841202368292A4FF0F7
:1055D0001002DA61F1D117F5803FEED02046FFF7D7
:1055E00024FAFFF73AFCE8E723681022DA61636CDB
:1055F00043F00403636494F8413037F08072DBB207
:10560000DBD1213B092B08D8DFE803F0050C0707A5
:1056100007070707050C21232363616C2046FFF76A
:10562000DBFCCAE72223F7E723681022DA61C4E72C
:105630003207C2D52B07C0D52046FFF744FCBCE794
:105640000220BDE7F8B590F84030C66A012B044649
:105650000D4617467BD001238A0680F8403003D5DB
:10566000BB0601D5FFF7DCFEE80633D5F90631D5D8
:10567000638D9BB2FBB994F84130282B0AD1B6F167
:10568000007F07D129462046FFF760FC002084F800
:105690004000F8BD94F841202368292A4FF01002F9
:1056A000DA61F3D116F5803FF0D02046FFF7BDF95F
:1056B000FFF7D3FBEAE723681022DA61636C43F05B
:1056C0000403636436F08073E0D1616C2046FFF719
:1056D00083FCDBE76A071AD57B0718D5638D9BB27D
:1056E00063B123685A6A636A1A70636A013363623A
:1056F000238D013B2385638D013B6385638D9BB2C5
:10570000002BC3D116F5803FC0D02046D0E7280734
:1057100005D5390703D52046FFF7D5FBB6E7AA071D
:10572000B4D5BB07B2D5638D9BB263B1636A2268FF
:1057300013F8011B91626362638D013B6385238DC6
:10574000013B2385A2E736F080739FD1DDE702207D
:105750009FE7806A836B0BB100229A63C36B0BB126
:1057600000229A63FFF722BC10B590F84120202A4E
:105770000346D4B21CD190F84020012A18D024222C
:1057800080F841200268106820F001001060106865
:1057900020F48050106010680843106011680020E9
:1057A00041F00101116083F8414083F8400010BDD1
:1057B0000220FCE7084B1A6E42F0010282B01A6622
:1057C0001B6E064A03F001030193019B53680343D8
:1057D000536002B0704700BF00100240000001405B
:1057E0000A4B44F620621B68B3FBF2F34FF47A7263
:1057F00010B55343046800202268013B08BF032012
:1058000031EA020201D0002BF6D110BD08000020C1
:1058100070470000F8B50446002850D090F83630A4
:1058200003F0FF021BB980F83520FFF7F1FF606835
:105830002168A56A022384F836300128CB6802D09B
:10584000B5F5000F01D123F01E0323F46046626911
:1058500026F0C0064FF6FF77BA4218BF3346194FFD
:10586000A6681F4040EA05033343266A3343666A4D
:1058700033433B43E0B9E069266930430343B5F560
:10588000000F17D04FF6FF70824204D0A069024388
:10589000E069024313430C4ACB609142E36A04BFC0
:1058A000226B13430B62012384F836300020F8BDCD
:1058B0000128E4D1D4E9030528430343E2E70120AA
:1058C000F5E700BFFEF119FF007C0040022238B569
:1058D00080F83620D0E90052012A04460B4607D052
:1058E000826AB2F5000F02BFEA6822F46062EA60E1
:1058F0002A69102142F001022A6120466960AB61E9
:10590000FFF76EFF032807D02B6943F004032B61D8
:10591000012384F83630002038BD0000024A1368A5
:1059200043F4807313607047007000400D4B10B556
:105930005B690C4628B99A0507D500F02FF820B10D
:1059400010BD9B0501D400F021F8074A1369012C12
:1059500023F00403136101D130BFF1E740BF20BF42
:1059600020BFEDE70070004000ED00E0024B18683A
:1059700000F4C060704700BF00700040024A5368E6
:1059800043F400735360704700700040024A13688C
:1059900043F4804313607047007000400C4A136862
:1059A00023F4804313600B4B1B6832214B430A499D
:1059B000B3FBF1F301335169890500D533B953695C
:1059C00013F4007F14BF032000207047013BF2E76F
:1059D000007000400800002040420F000B4A13688E
:1059E00023F0070343F002031360094B1A690128EF
:1059F00042F004021A6105D130BF1A6922F0040294
:105A00001A61704740BF20BF20BFF6E7007000401A
:105A100000ED00E037B51E4DAB6DDA00044618D539
:105A2000FFF7A4FFB0F5007F23D1802C29D9A02C4B
:105A30008CBF0224012417490A6822F0070222437E
:105A40000A60086800F00700001B18BF012003B0BF
:105A500030BDAB6D43F08053AB65AB6D03F080534D
:105A60000193019BFFF782FFAB6D23F08053AB6581
:105A7000D8E7802C07D808D0A4F170035C425C41C1
:105A8000D9E70024D7E70324D5E70224D3E700BFF2
:105A90000010024000200240204B9A68D96812F0A2
:105AA0000C0205D00C2A2CD101F0030101292FD1C1
:105AB00019681B48090755BFD3F894101968C1F33A
:105AC0000321C1F3031150F8210032B3DA6802F068
:105AD0000302022A1ED01349032A08BF0846D968C8
